:100000000C94F0000C9421010C9421010C9421011A
:100010000C9421010C9421010C9421010C942101D8
:100020000C9421010C9421010C9421010C942101C8
:100030000C9421010C94BC030C9421010C9421011B
:100040000C9421010C9421010C9421010C942101A8
:100050000C9421010C9421010C9421010C94720345
:100060000C9421010C943C030C9412030C94210178
:100070000C9421010C9421010C9421010C94210178
:100080000C9421010C9421010C9421010C94210168
:100090000C9421010C9421010C9421010C94210158
:1000A0000C9421010C9421010C9421010C94210148
:1000B0000C9421010C9421010C9421010C94210138
:1000C0000C9421010C9421010C9421010C94210128
:1000D0000C9421010C9421010C9421010C94210118
:1000E0000C9421010C944B020C94A4010C949501E6
:1000F0000C94B8010C94E5030C94C6010C94FE0119
:100100000C94680100002100240027002A002D0023
:100110003000330001010000040107010A01000062
:1001200020002300260029002C002F0032000001AF
:10013000000003010601090100002200250028003B
:100140002B002E00310034000201000005010801DF
:100150000B0105050505070508080808020202024B
:100160000A0A080804040404010101010101010153
:100170000303030303030303040707070C0C0C0C1E
:100180000C0C0C0C02020202060606060606060607
:100190000B0B0B0B0B0B0B0B010210202008081094
:1001A00020401020408002010201080402010102E7
:1001B00004081020408080402010080402018004C0
:1001C000020180402010080402010804020101021B
:1001D0000408102040800102040810204080E5033C
:1001E00011241FBECFEFD1E2DEBFCDBF00E00CBFB8
:1001F00012E0A0E0B2E0ECECFCE000E00BBF02C0DB
:1002000007900D92A634B107D9F724E0A6E4B2E036
:1002100001C01D92AC31B207E1F710E0C0EFD0E0B1
:1002200000E006C021970109802FFE010E945C06B4
:10023000CF3ED10780E00807A9F70E946B040C9419
:1002400064060C940000DC0170E0FB01E856FE4FF0
:10025000E4911496EC93149750E0FA01E856FE4F9F
:10026000E4911596EC9315976E5A7E4FFB0184919D
:10027000E82FF0E0EE0FFF1FE85CFE4F85919491B0
:1002800017969C938E931697FA01EE5AFE4FE491BF
:10029000F0E0EE0FFF1FE25EFE4F859194911996FC
:1002A0009C938E931897FB016491E62FF0E0EE0F7C
:1002B000FF1FEC5FFE4F859194911B969C938E934C
:1002C0001A978DE89FE61D969C938E931C97089530
:1002D000AF92BF92CF92DF92EF92FF920F931F9354
:1002E000CF93DF936C017B018B01040F151FEB0192
:1002F0005E01AE18BF08C017D10759F06991D60149
:10030000ED91FC910190F081E02DC6011995892BAA
:1003100079F7C501DF91CF911F910F91FF90EF9079
:10032000DF90CF90BF90AF900895FC01538D448D26
:10033000252F30E0842F90E0821B930B541710F090
:10034000CF96089501970895FC01918D828D98179D
:1003500061F0A28DAE0FBF2FB11D5D968C91928D75
:100360009F5F9F73928F90E008958FEF9FEF0895A6
:10037000FC01918D828D981731F0828DE80FF11D6F
:10038000858D90E008958FEF9FEF0895FC01918D8A
:10039000228D892F90E0805C9F4F821B91098F7383
:1003A0009927089581E792E00E94C60121E0892BF8
:1003B00009F420E0822F0895FC01A48DA80FB92F25
:1003C000B11DA35ABF4F2C91848D90E001968F737D
:1003D0009927848FA689B7892C93A089B1898C919C
:1003E000837080648C93938D848D981306C00288EB
:1003F000F389E02D80818F7D80830895EF92FF92B5
:100400000F931F93CF93DF93EC0181E0888F9B8D37
:100410008C8D98131AC0E889F989808185FF15C0F1
:100420009FB7F894EE89FF896083E889F989808114
:100430008370806480839FBF81E090E0DF91CF91E3
:100440001F910F91FF90EF900895F62E0B8D10E005
:100450000F5F1F4F0F731127E02E8C8D8E110CC074
:100460000FB607FCFACFE889F989808185FFF5CFBF
:10047000CE010E94DC01F1CFEB8DEC0FFD2FF11DC1
:10048000E35AFF4FF0829FB7F8940B8FEA89FB89FC
:1004900080818062CFCFCF93DF93EC01888D88235A
:1004A000B9F0AA89BB89E889F9898C9185FD03C0D7
:1004B000808186FD0DC00FB607FCF7CF8C9185FFBC
:1004C000F2CF808185FFEDCFCE010E94DC01E9CF24
:1004D000DF91CF91089580E090E0892B29F00E9470
:1004E000D20181110E94000080E090E0892B49F048
:1004F00080E090E0892B29F00E94000081110E9489
:10050000000080E090E0892B49F080E090E0892BAA
:1005100029F00E94000081110E94000080E090E01C
:10052000892B49F080E090E0892B29F00E9400009F
:1005300081110C94000008953FB7F89480914F0208
:1005400090915002A0915102B091520226B5A89B01
:1005500005C02F3F19F00196A11DB11D3FBFBA2F55
:10056000A92F982F8827BC01CD01620F711D811D15
:10057000911D42E0660F771F881F991F4A95D1F79A
:100580000895FC0101900020E9F73197AF01481B65
:10059000590BBC0181E792E00C9468018F929F9205
:1005A000AF92BF920F931F93CF93DF93CDB7DEB778
:1005B000A1970FB6F894DEBF0FBECDBF19A242308F
:1005C00008F44AE08E010F5D1F4F842E912CB12C50
:1005D000A12CA50194010E943A06E62FB901CA0197
:1005E000EA30F4F4E05DD801EE938D01232B242B47
:1005F000252B79F790E080E0109719F0CD010E944B
:10060000C102A1960FB6F894DEBF0FBECDBFDF9139
:10061000CF911F910F91BF90AF909F908F900895B1
:10062000E95CE1CF1F920F920FB60F9211240BB627
:100630000F922F933F934F935F936F937F938F937B
:100640009F93AF93BF93EF93FF9381E792E00E9454
:10065000DC01FF91EF91BF91AF919F918F917F91BD
:100660006F915F914F913F912F910F900BBE0F9023
:100670000FBE0F901F9018951F920F920FB60F92FA
:1006800011240BB60F922F938F939F93EF93FF93A9
:10069000E0918102F09182028081E0918702F091E5
:1006A000880282FD1DC0908180918A028F5F8F73C6
:1006B00020918B02821741F0E0918A02F0E0EF581E
:1006C000FD4F958F80938A02FF91EF919F918F91BB
:1006D0002F910F900BBE0F900FBE0F901F9018958B
:1006E0008081F2CF1F920F920FB60F9211242F9399
:1006F0003F938F939F93AF93BF9380914B029091C1
:100700004C02A0914D02B0914E0230914A0223E07A
:10071000230F2D3758F50196A11DB11D20934A02D4
:1007200080934B0290934C02A0934D02B0934E02E3
:1007300080914F0290915002A0915102B0915202CB
:100740000196A11DB11D80934F0290935002A0937A
:100750005102B0935202BF91AF919F918F913F91FF
:100760002F910F900FBE0F901F90189526E8230F22
:100770000296A11DB11DD2CF1F920F920FB60F92FC
:1007800011240BB60F922F933F934F935F936F9368
:100790007F938F939F93AF93BF93EF93FF93F0E07B
:1007A000E0E01995FF91EF91BF91AF919F918F91EB
:1007B0007F916F915F914F913F912F910F900BBE61
:1007C0000F900FBE0F901F901895E1E7F2E0138293
:1007D000128288EE93E0A0E0B0E084839583A68344
:1007E000B78384E092E09183808385EC90E09587E5
:1007F000848784EC90E09787868780EC90E0918BEB
:10080000808B81EC90E0938B828B82EC90E0958BD7
:10081000848B86EC90E0978B868B118E128E138ED4
:10082000148E4FE16EE18EE093E00E94230141E2DD
:1008300060E280E293E00E94230143E262E282E30D
:1008400093E00E94230145E264E284E493E00E9485
:10085000230147E266E286E593E00E94230149E234
:1008600068E288E693E00E94230142E063E08AE7C1
:1008700093E00E94230144E065E08CE893E00E944D
:10088000230146E067E08EE993E00E94230148E0FF
:1008900069E080EB93E00E9423014AE06BE082EC88
:1008A00093E00E94230147E166E184ED93E00E941A
:1008B000230149E168E186EE93E00E9423014BE1C8
:1008C0006AE188EF93E00E9423014DE16CE18AE048
:1008D00094E00C942301789484B5826084BD84B53F
:1008E000816084BD85B5826085BD85B5816085BD2B
:1008F00080916E00816080936E00109281008091E3
:10090000810082608093810080918100816080936A
:100910008100809180008160809380008091B1008F
:1009200084608093B1008091B00081608093B000BA
:10093000809191008260809391008091910081600C
:1009400080939100809190008160809390008091CD
:10095000A10082608093A1008091A10081608093BA
:10096000A1008091A00081608093A000809121016E
:100970008260809321018091210181608093210117
:100980008091200181608093200180917A008460B1
:1009900080937A0080917A00826080937A008091BF
:1009A0007A00816080937A0080917A0080688093D9
:1009B0007A001092C100E0918102F091820282E0FF
:1009C0008083E0917D02F0917E021082E0917F02AF
:1009D000F09180028FEC808310928902E091850271
:1009E000F091860286E08083E0918302F091840298
:1009F000808180618083E0918302F0918402808114
:100A000088608083E0918302F09184028081806815
:100A10008083E0918302F091840280818F7D8083C6
:100A200029E3822E912CA12CB12C34EF232E3324D8
:100A30003394CEE0D3E003E512E07801EA85FB854C
:100A400080819C81892B8083EE81FF8190818C81C4
:100A50008095892380838BE090E00197F1F7EE8108
:100A6000FF8180819C81892B808383E290E00197C4
:100A7000F1F7EE81FF8190818C81809589238083BD
:100A8000EA85FB8590818C81809589238083E88528
:100A9000F98580819D81892309F463C050E040E09D
:100AA000BA0190E080E0A50194010E943A06C901D4
:100AB000F701892B09F4ABC0318320836296F2E001
:100AC000EF0EF11C24E0CC31D20709F0B7CF412C56
:100AD000512C32014394F801819191918F01853F0E
:100AE00091400CF497C082E192E00E94C1022FEF86
:100AF000421A520A620A720A80E1481651046104DD
:100B0000710449F70E949C026B017C0182E3482E2C
:100B1000512C612C712C0E949C026C197D098E094C
:100B20009F09683E734081059105A8F3E1E04E1AE4
:100B3000510861087108F8EECF0EF3E0DF1EE11CEA
:100B4000F11C411451046104710429F786E392E019
:100B50000E94C10283E392E00E94C1020E946B02E4
:100B600068CF0E949C02AB01BC018C859D85B0E0E2
:100B7000A0E08855994EAF4FBF4F840F951FA61F19
:100B8000B71F8E879F87A88BB98BE885F9858081F1
:100B90009D81892361F40E949C024E845F84688851
:100BA0007988461657066806790678F777CF0E9447
:100BB0009C022C853D85AB01BC01420F531F611D7A
:100BC000711D4E875F87688B798BE885F9858081F9
:100BD0009D81892361F00E949C024E845F84688815
:100BE0007988461657066806790678F757CF0E9427
:100BF0009C022C853D85A901455051092E853F85D4
:100C0000FA01E21BF30BAF01460F571F49CF3182A8
:100C1000208254CF82E292E00E94C1024AE0C301E6
:100C2000B2010E94CE028AE292E00E94C102F80163
:100C30003297C080D1800D2C000CEE08FF084AE0EE
:100C4000C701B601F7FE0DC06DE281E792E00E9498
:100C5000FE0166277727CB016C197D098E099F0954
:100C60004AE00E94CE028EE292E00E94C10283E33B
:100C700092E03BCFA1E21A2EAA1BBB1BFD010DC0C7
:100C8000AA1FBB1FEE1FFF1FA217B307E407F5073C
:100C900020F0A21BB30BE40BF50B661F771F881F18
:100CA000991F1A9469F760957095809590959B01AE
:100CB000AC01BD01CF010895EE0FFF1F881F8BBF50
:0C0CC0000790F691E02D1994F894FFCFF6
:100CCC0000000000FE01680195014B02C601A40161
:100CDC00B8014F7574206F662072616E67652121B3
:100CEC00210053656E736F722000203D200020633D
:100CFC006D20000D0A002D2D2D2D2D2D2D2D2D2D82
:060D0C002D2D2D2000003A
:00000001FF
