:100000000C9435010C9466010C9466010C94660105
:100010000C9466010C9466010C9466010C946601C4
:100020000C9466010C9466010C9466010C946601B4
:100030000C9466010C9466010C9466010C946601A4
:100040000C9466010C9466010C9466010C94660194
:100050000C9466010C9466010C9466010C940C04DB
:100060000C9466010C94D6030C94AC030C946601BA
:100070000C9466010C9466010C9466010C94660164
:100080000C9466010C9466010C9466010C94660154
:100090000C9466010C9466010C9466010C94660144
:1000A0000C9466010C9466010C9466010C94660134
:1000B0000C9466010C9466010C9466010C94660124
:1000C0000C9466010C9466010C9466010C94660114
:1000D0000C9466010C9466010C9466010C94660104
:1000E0000C9466010C94A4010C9495010C941E03CD
:1000F0000C944B020C94EF020C94CC020C94E7028B
:100100000C94FE010C9414030C94FC020C94F80261
:100110000C9406030C9402030C9468010C941803CD
:100120000C9422030C949B040C94EB020C94B801E5
:100130000C94D1020C94E3020C940A030C94100367
:100140000C94C6010C94F20200000A0B02090C0D7B
:100150000E0807030401000000000000000000007A
:10016000000000000000000000000000000000008F
:10017000000000001211100000000000000000004C
:10018000000000000000000000000000000000006F
:100190002200250028002B002E003100340002012F
:1001A0000000050108010B010000210024002700C8
:1001B0002A002D0030003300010100000401070176
:1001C0000A01000020002300260029002C002F0037
:1001D00032000001000003010601090105050505C3
:1001E000070508080808020202020A0A08080404AF
:1001F00004040101010101010101030303030303DD
:100200000303040707070C0C0C0C0C0C0C0C02026B
:10021000020206060606060606060B0B0B0B0B0B68
:100220000B0B0102102020080810204010204080F5
:1002300002010201080402010102040810204080AA
:100240008040201008040201800402018040201038
:100250000804020108040201010204081020408081
:1002600001020408102040809B0411241FBECFEF20
:10027000D1E2DEBFCDBF00E00CBF12E0A0E0B2E0F3
:10028000E0E0F1E100E00BBF02C007900D92AC3559
:10029000B107D9F723E0ACE5B2E001C01D92AC355F
:1002A000B207E1F711E0C5E3D1E000E006C0219715
:1002B0000109802FFE010E947608C433D10780E037
:1002C0000807A9F70E9464050C947E080C940000AE
:1002D000AF92BF92CF92DF92EF92FF920F931F9354
:1002E000CF93DF936C017B018B01040F151FEB0192
:1002F0005E01AE18BF08C017D10759F06991D60149
:10030000ED91FC910190F081E02DC6011995892BAA
:1003100079F7C501DF91CF911F910F91FF90EF9079
:10032000DF90CF90BF90AF900895FC01538D448D26
:10033000252F30E0842F90E0821B930B541710F090
:10034000CF96089501970895FC01918D828D98179D
:1003500061F0A28DAE0FBF2FB11D5D968C91928D75
:100360009F5F9F73928F90E008958FEF9FEF0895A6
:10037000FC01918D828D981731F0828DE80FF11D6F
:10038000858D90E008958FEF9FEF0895FC01918D8A
:10039000228D892F90E0805C9F4F821B91098F7383
:1003A0009927089585E692E00E94C60121E0892BF5
:1003B00009F420E0822F0895FC01A48DA80FB92F25
:1003C000B11DA35ABF4F2C91848D90E001968F737D
:1003D0009927848FA689B7892C93A089B1898C919C
:1003E000837080648C93938D848D981306C00288EB
:1003F000F389E02D80818F7D80830895EF92FF92B5
:100400000F931F93CF93DF93EC0181E0888F9B8D37
:100410008C8D98131AC0E889F989808185FF15C0F1
:100420009FB7F894EE89FF896083E889F989808114
:100430008370806480839FBF81E090E0DF91CF91E3
:100440001F910F91FF90EF900895F62E0B8D10E005
:100450000F5F1F4F0F731127E02E8C8D8E110CC074
:100460000FB607FCFACFE889F989808185FFF5CFBF
:10047000CE010E94DC01F1CFEB8DEC0FFD2FF11DC1
:10048000E35AFF4FF0829FB7F8940B8FEA89FB89FC
:1004900080818062CFCFCF93DF93EC01888D88235A
:1004A000B9F0AA89BB89E889F9898C9185FD03C0D7
:1004B000808186FD0DC00FB607FCF7CF8C9185FFBC
:1004C000F2CF808185FFEDCFCE010E94DC01E9CF24
:1004D000DF91CF91089580E090E0892B29F00E9470
:1004E000D20181110E94000080E090E0892B49F048
:1004F00080E090E0892B29F00E94000081110E9489
:10050000000080E090E0892B49F080E090E0892BAA
:1005100029F00E94000081110E94000080E090E01C
:10052000892B49F080E090E0892B29F00E9400009F
:1005300081110C9400000895282F30E0F901E85B48
:10054000FE4F9491F901EE5DFD4F449124523E4FD0
:10055000F9012491222309F435C0992311F1915016
:100560009231F8F4E92FF0E08827E654FD4F8F4FE1
:100570000C947608EB02EF02CC02E302E702D10210
:10058000F202F802FC02020306030A03100314033A
:10059000D10218031E032203809180008F7780937D
:1005A0008000E22FF0E0EE0FFF1FE257FE4FA59113
:1005B000B4918FB7F894EC91611148C040954E23E7
:1005C0004C938FBF0895809180008F7DE8CF8091FC
:1005D0008000877FE4CF84B58F7784BDE2CF84B578
:1005E0008F7DFBCF8091B0008F778093B000D9CF03
:1005F0008091B0008F7DF9CF809190008F778093AC
:100600009000CFCF809190008F7DF9CF80919000A6
:10061000877FF5CF8091A0008F778093A000C1CF16
:100620008091A0008F7DF9CF8091A000877FF5CFCA
:10063000809120018F7780932001B3CF809120019A
:100640008F7DF9CF80912001877FF5CF4E2BB8CFDA
:100650003FB7F8948091610290916202A091630289
:10066000B091640226B5A89B05C02F3F19F00196F2
:10067000A11DB11D3FBFBA2FA92F982F8827BC01FC
:10068000CD01620F711D811D911D42E0660F771F24
:10069000881F991F4A95D1F70895FC010190002009
:1006A000E9F73197AF01481B590BBC0185E692E091
:1006B0000C9468018F929F92AF92BF920F931F93F9
:1006C000CF93DF93CDB7DEB7A1970FB6F894DEBF17
:1006D0000FBECDBF19A2423008F44AE08E010F5D73
:1006E0001F4F842E912CB12CA12CA50194010E94A6
:1006F0005408E62FB901CA01EA30F4F4E05DD801EC
:10070000EE938D01232B242B252B79F790E080E0AD
:10071000109719F0CD010E944D03A1960FB6F894E1
:10072000DEBF0FBECDBFDF91CF911F910F91BF9064
:10073000AF909F908F900895E95CE1CFCF93DF93C6
:100740000E944D03EC0182E192E00E944D038C0F68
:100750009D1FDF91CF9108951F920F920FB60F92B8
:1007600011240BB60F922F933F934F935F936F9388
:100770007F938F939F93AF93BF93EF93FF9385E600
:1007800092E00E94DC01FF91EF91BF91AF919F91A8
:100790008F917F916F915F914F913F912F910F902A
:1007A0000BBE0F900FBE0F901F9018951F920F92C7
:1007B0000FB60F9211240BB60F922F938F939F9326
:1007C000EF93FF93E0917502F09176028081E091C2
:1007D0007B02F0917C0282FD1DC0908180917E029F
:1007E0008F5F8F7320917F02821741F0E0917E022C
:1007F000F0E0EB59FD4F958F80937E02FF91EF91D2
:100800009F918F912F910F900BBE0F900FBE0F9065
:100810001F9018958081F2CF1F920F920FB60F9202
:1008200011242F933F938F939F93AF93BF93809106
:100830005D0290915E02A0915F02B09160023091E2
:100840005C0223E0230F2D3758F50196A11DB11D41
:1008500020935C0280935D0290935E02A0935F02FE
:10086000B09360028091610290916202A091630254
:10087000B09164020196A11DB11D80936102909315
:100880006202A0936302B0936402BF91AF919F9103
:100890008F913F912F910F900FBE0F901F90189541
:1008A00026E8230F0296A11DB11DD2CFCF92DF9271
:1008B000EF92FF920F931F93E82FF92F05C001507D
:1008C00011092109310961F1908196239417B9F337
:1008D00005C0015011092109310911F190819623B8
:1008E0009413F7CFC12CD12CE12CF12C0AC08FEF3F
:1008F000C81AD80AE80AF80A0C151D052E053F0586
:1009000079F080818623841791F36C2D7D2D8E2DB7
:100910009F2D1F910F91FF90EF90DF90CF90089542
:1009200060E070E080E090E01F910F91FF90EF9009
:10093000DF90CF900895E5E6F2E01382128288EE10
:1009400093E0A0E0B0E084839583A683B78384E03E
:1009500092E09183808385EC90E09587848784EC96
:1009600090E09787868780EC90E0918B808B81EC7C
:1009700090E0938B828B82EC90E0958B848B86EC5D
:1009800090E0978B868B118E128E138E148EE2E080
:10099000F3E081E080838EE181838FE1828383E0D5
:1009A00090E094838383158232E0368320E22783AC
:1009B00021E2208792878187138673E0748722E281
:1009C000258723E22687908B8787118A44E0428B14
:1009D00024E2238B25E2248B968B858B178A65E096
:1009E000608F26E2218F27E2228F948F838F158ECE
:1009F00026E0268F58E2578F59E250A392A381A395
:100A000013A257E054A375A336A390A787A311A6FA
:100A100038E032A763A744A796A785A717A649E0A1
:100A200040AB51AB22AB94AB83AB15AA2AE026AB0B
:100A300047AB30AF92AF81AF13AE3BE034AF35AFD1
:100A400026AF9093420380934103109243032CE01E
:100A50002093440326E12093450327E12093460396
:100A60009093480380934703109249032DE020930D
:100A70004A0328E120934B0329E120934C039093F0
:100A80004E0380934D0310924F032EE020935003AA
:100A90002AE1209351032BE12093520390935403B6
:100AA00080935303109255032FE0209356032CE1BB
:100AB000209357032DE12093580390935A0380937A
:100AC000590310925B030895789484B5826084BDC5
:100AD00084B5816084BD85B5826085BD85B5816042
:100AE00085BD80916E00816080936E0010928100C0
:100AF000809181008260809381008091810081607B
:100B0000809381008091800081608093800080913B
:100B1000B10084608093B1008091B00081608093C7
:100B2000B00080919100826080939100809191004B
:100B3000816080939100809190008160809390000B
:100B40008091A10082608093A1008091A1008160CA
:100B50008093A1008091A00081608093A00080918B
:100B60002101826080932101809121018160809325
:100B700021018091200181608093200180917A0081
:100B8000846080937A0080917A00826080937A00FA
:100B900080917A00816080937A0080917A008068E9
:100BA00080937A001092C100E0917502F091760274
:100BB00082E08083E0917102F09172021082E091F4
:100BC0007302F09174028FEC808310927D02E091A9
:100BD0007902F0917A0286E08083E0917702F091C9
:100BE0007802808180618083E0917702F0917802C1
:100BF000808188608083E0917702F0917802808123
:100C000080688083E0917702F091780280818F7D07
:100C100080832CE533E072E0E72E73E0F72EF701D6
:100C2000818190E0FC01EE5DFD4F449184529E4F26
:100C3000FC018491882399F090E0880F991FFC01B2
:100C4000E855FE4FA591B491FC01E257FE4F859106
:100C500094918FB7F894EC91E42BEC938FBFF7014C
:100C6000828190E0FC01EE5DFD4F449184529E4FE5
:100C7000FC0184918823C1F090E0880F991FFC014A
:100C8000E855FE4FA591B491FC01E257FE4FC59186
:100C9000D4919FB7F8948C91E42FE0958E238C9398
:100CA0008881E823E8839FBFF6E0EF0EF11C2E1544
:100CB0003F0509F0B4CF32E0232E312CCC24C3946D
:100CC000D12CC2E0D3E061E089810E949C0283E2E2
:100CD00090E00197F1F760E089810E949C028A818F
:100CE00090E0FC01EE5DFD4F6491FC01E452FE4F8B
:100CF000E491F0E0EE0FFF1FEE53FE4F85919491CB
:100D000000E412E42FE030E0462F0E945604611503
:100D100071058105910529F06F5F7F4F8F4F9F4FC0
:100D20009F707695679590E080E00E94C6072DEC55
:100D30003CEC48EE51E40E9425070E9497076D8322
:100D4000633308F05AC0DC82CB8285E192E00E94D6
:100D50004D03688170E090E080E04AE00E945A0311
:100D60008DE192E00E944D036D8170E090E080E0A3
:100D70004AE00E945A0380E292E00E944D038B8178
:100D80009C818230910509F45AC008F047C0009751
:100D900009F44DC0019709F44FC084E192E00E942C
:100DA0009E030E9428032B013C0184E6882E912C8F
:100DB000A12CB12C0E942803641975098609970992
:100DC000683E734081059105A8F3F1E08F1A910800
:100DD000A108B10828EE420E23E0521E611C711CCE
:100DE00081149104A104B10429F72696EC16FD069E
:100DF00009F069CF0E946B0264CF653618F43C821B
:100E00002B82A3CF693C28F483E090E09C838B8302
:100E10009CCFE4E0F0E0FC83EB8397CF8330910537
:100E200089F0049709F0B9CF89E492E002C087E223
:100E300092E00E949E03B1CF88E392E0FACF8CE368
:100E400092E0F7CF86E492E0F4CF0E9439070C9449
:100E50001A080E94130858F00E940C0840F029F468
:100E60005F3F29F00C94030851110C944E080C9428
:100E700009080E942B0868F39923B1F3552391F3D5
:100E8000951B550BBB27AA2762177307840738F0F9
:100E90009F5F5F4F220F331F441FAA1FA9F335D056
:100EA0000E2E3AF0E0E832D091505040E695001C0A
:100EB000CAF72BD0FE2F29D0660F771F881FBB1FC4
:100EC000261737074807AB07B0E809F0BB0B802DA2
:100ED000BF01FF2793585F4F3AF09E3F510578F0CE
:100EE0000C9403080C944E085F3FE4F3983ED4F34F
:100EF000869577956795B795F7959F5FC9F7880FA2
:100F0000911D9695879597F90895E1E0660F771FF3
:100F1000881FBB1F621773078407BA0720F0621B84
:100F2000730B840BBA0BEE1F88F7E09508950E94AF
:100F3000330888F09F5798F0B92F9927B751B0F030
:100F4000E1F0660F771F881F991F1AF0BA95C9F74D
:100F500014C0B13091F00E944D08B1E008950C9496
:100F60004D08672F782F8827B85F39F0B93FCCF349
:100F7000869577956795B395D9F73EF490958095CA
:100F8000709561957F4F8F4F9F4F0895E89409C0EA
:100F900097FB3EF490958095709561957F4F8F4FAC
:100FA0009F4F9923A9F0F92F96E9BB279395F695C2
:100FB000879577956795B795F111F8CFFAF4BB0F40
:100FC00011F460FF1BC06F5F7F4F8F4F9F4F16C0A4
:100FD000882311F096E911C0772321F09EE8872F2E
:100FE000762F05C0662371F096E8862F70E060E0EA
:100FF0002AF09A95660F771F881FDAF7880F969563
:10100000879597F9089597F99F6780E870E060E009
:1010100008959FEF80EC089500240A941616170691
:1010200018060906089500240A94121613061406D9
:1010300005060895092E0394000C11F4882352F03C
:10104000BB0F40F4BF2B11F460FF04C06F5F7F4FF4
:101050008F4F9F4F089557FD9058440F551F59F0DB
:101060005F3F71F04795880F97FB991F61F09F3F95
:1010700079F087950895121613061406551FF2CFBE
:101080004695F1DF08C0161617061806991FF1CF0E
:1010900086957105610508940895E894BB27662735
:1010A0007727CB0197F90895A1E21A2EAA1BBB1B43
:1010B000FD010DC0AA1FBB1FEE1FFF1FA217B30724
:1010C000E407F50720F0A21BB30BE40BF50B661F3A
:1010D000771F881F991F1A9469F7609570958095FE
:1010E00090959B01AC01BD01CF010895EE0FFF1F4C
:1010F000881F8BBF0790F691E02D1994F894FFCFCD
:1011000000000000FE01680195014B02C601A40128
:10111000B8010D0A0053656E736F7220003A20000B
:10112000636D20202020004C4F575F4F55545F4F78
:10113000465F52414E4745005741595F544F4F5FFC
:10114000434C4F5345004F4B00484947485F4F556C
:0C115000545F4F465F52414E474500007F
:00000001FF
